{
  "_format": "hh-sol-artifact-1",
  "contractName": "Provenance",
  "sourceName": "contracts/Provenance.sol",
  "abi": [
    {
      "anonymous": false,
      "inputs": [
        {
          "indexed": true,
          "internalType": "string",
          "name": "shipmentId",
          "type": "string"
        },
        {
          "indexed": false,
          "internalType": "string",
          "name": "documentHash",
          "type": "string"
        },
        {
          "indexed": false,
          "internalType": "uint256",
          "name": "timestamp",
          "type": "uint256"
        }
      ],
      "name": "DocumentAnchored",
      "type": "event"
    },
    {
      "inputs": [
        {
          "internalType": "string",
          "name": "_shipmentId",
          "type": "string"
        },
        {
          "internalType": "string",
          "name": "_documentHash",
          "type": "string"
        }
      ],
      "name": "anchorDocument",
      "outputs": [],
      "stateMutability": "nonpayable",
      "type": "function"
    },
    {
      "inputs": [
        {
          "internalType": "string",
          "name": "_documentHash",
          "type": "string"
        }
      ],
      "name": "verifyDocument",
      "outputs": [
        {
          "internalType": "bool",
          "name": "isGenuine",
          "type": "bool"
        },
        {
          "internalType": "string",
          "name": "shipmentId",
          "type": "string"
        },
        {
          "internalType": "uint256",
          "name": "timestamp",
          "type": "uint256"
        },
        {
          "internalType": "address",
          "name": "anchoredBy",
          "type": "address"
        }
      ],
      "stateMutability": "view",
      "type": "function"
    }
  ],
  "bytecode": "0x608060405234801561001057600080fd5b50610bcb806100206000396000f3fe608060405234801561001057600080fd5b50600436106100365760003560e01c80638431173d1461003b578063beee5eb714610057575b600080fd5b610055600480360381019061005091906105c7565b61008a565b005b610071600480360381019061006c919061063f565b61024a565b604051610081949392919061077c565b60405180910390f35b60008160405161009a9190610804565b908152602001604051809103902060030160149054906101000a900460ff16156100f9576040517f08c379a00000000000000000000000000000000000000000000000000000000081526004016100f090610867565b60405180910390fd5b6040518060a001604052808381526020018281526020014281526020013373ffffffffffffffffffffffffffffffffffffffff168152602001600115158152506000826040516101499190610804565b9081526020016040518091039020600082015181600001908161016c9190610a93565b5060208201518160010190816101829190610a93565b506040820151816002015560608201518160030160006101000a81548173ffffffffffffffffffffffffffffffffffffffff021916908373ffffffffffffffffffffffffffffffffffffffff16021790555060808201518160030160146101000a81548160ff021916908315150217905550905050816040516102059190610804565b60405180910390207f7bde7055822cb21df114f034329ee6c196ff6e058172cdcd6a9c5500c91d55b0824260405161023e929190610b65565b60405180910390a25050565b60006060600080600080866040516102629190610804565b90815260200160405180910390206040518060a001604052908160008201805461028b906108b6565b80601f01602080910402602001604051908101604052809291908181526020018280546102b7906108b6565b80156103045780601f106102d957610100808354040283529160200191610304565b820191906000526020600020905b8154815290600101906020018083116102e757829003601f168201915b5050505050815260200160018201805461031d906108b6565b80601f0160208091040260200160405190810160405280929190818152602001828054610349906108b6565b80156103965780601f1061036b57610100808354040283529160200191610396565b820191906000526020600020905b81548152906001019060200180831161037957829003601f168201915b50505050508152602001600282015481526020016003820160009054906101000a900473ffffffffffffffffffffffffffffffffffffffff1673ffffffffffffffffffffffffffffffffffffffff1673ffffffffffffffffffffffffffffffffffffffff1681526020016003820160149054906101000a900460ff1615151515815250509050806080015115610445576001816000015182604001518360600151945094509450945050610466565b60008060006040518060200160405280600081525091909450945094509450505b9193509193565b6000604051905090565b600080fd5b600080fd5b600080fd5b600080fd5b6000601f19601f8301169050919050565b7f4e487b7100000000000000000000000000000000000000000000000000000000600052604160045260246000fd5b6104d48261048b565b810181811067ffffffffffffffff821117156104f3576104f261049c565b5b80604052505050565b600061050661046d565b905061051282826104cb565b919050565b600067ffffffffffffffff8211156105325761053161049c565b5b61053b8261048b565b9050602081019050919050565b82818337600083830152505050565b600061056a61056584610517565b6104fc565b90508281526020810184848401111561058657610585610486565b5b610591848285610548565b509392505050565b600082601f8301126105ae576105ad610481565b5b81356105be848260208601610557565b91505092915050565b600080604083850312156105de576105dd610477565b5b600083013567ffffffffffffffff8111156105fc576105fb61047c565b5b61060885828601610599565b925050602083013567ffffffffffffffff8111156106295761062861047c565b5b61063585828601610599565b9150509250929050565b60006020828403121561065557610654610477565b5b600082013567ffffffffffffffff8111156106735761067261047c565b5b61067f84828501610599565b91505092915050565b60008115159050919050565b61069d81610688565b82525050565b600081519050919050565b600082825260208201905092915050565b60005b838110156106dd5780820151818401526020810190506106c2565b60008484015250505050565b60006106f4826106a3565b6106fe81856106ae565b935061070e8185602086016106bf565b6107178161048b565b840191505092915050565b6000819050919050565b61073581610722565b82525050565b600073ffffffffffffffffffffffffffffffffffffffff82169050919050565b60006107668261073b565b9050919050565b6107768161075b565b82525050565b60006080820190506107916000830187610694565b81810360208301526107a381866106e9565b90506107b2604083018561072c565b6107bf606083018461076d565b95945050505050565b600081905092915050565b60006107de826106a3565b6107e881856107c8565b93506107f88185602086016106bf565b80840191505092915050565b600061081082846107d3565b915081905092915050565b7f446f63756d656e7420616c726561647920616e63686f72656400000000000000600082015250565b60006108516019836106ae565b915061085c8261081b565b602082019050919050565b6000602082019050818103600083015261088081610844565b9050919050565b7f4e487b7100000000000000000000000000000000000000000000000000000000600052602260045260246000fd5b600060028204905060018216806108ce57607f821691505b6020821081036108e1576108e0610887565b5b50919050565b60008190508160005260206000209050919050565b60006020601f8301049050919050565b600082821b905092915050565b6000600883026109497fffffffffffffffffffffffffffffffffffffffffffffffffffffffffffffffff8261090c565b610953868361090c565b95508019841693508086168417925050509392505050565b6000819050919050565b600061099061098b61098684610722565b61096b565b610722565b9050919050565b6000819050919050565b6109aa83610975565b6109be6109b682610997565b848454610919565b825550505050565b600090565b6109d36109c6565b6109de8184846109a1565b505050565b5b81811015610a02576109f76000826109cb565b6001810190506109e4565b5050565b601f821115610a4757610a18816108e7565b610a21846108fc565b81016020851015610a30578190505b610a44610a3c856108fc565b8301826109e3565b50505b505050565b600082821c905092915050565b6000610a6a60001984600802610a4c565b1980831691505092915050565b6000610a838383610a59565b9150826002028217905092915050565b610a9c826106a3565b67ffffffffffffffff811115610ab557610ab461049c565b5b610abf82546108b6565b610aca828285610a06565b600060209050601f831160018114610afd5760008415610aeb578287015190505b610af58582610a77565b865550610b5d565b601f198416610b0b866108e7565b60005b82811015610b3357848901518255600182019150602085019450602081019050610b0e565b86831015610b505784890151610b4c601f891682610a59565b8355505b6001600288020188555050505b505050505050565b60006040820190508181036000830152610b7f81856106e9565b9050610b8e602083018461072c565b939250505056fea26469706673582212207c115e8ede74893e99ed63460044c6ff12a0db7be0feacca1e0bac1b7a0d540864736f6c63430008140033",
  "linkReferences": {},
  "deployedLinkReferences": {}
}